:020000040800F2
:1000000000000520F90200080103000805030008AC
:10001000790300087D030008C50300080000000004
:100020000000000000000000000000000D040008B7
:10003000110400080000000015040008190400085D
:1000400029040008290400082904000829040008DC
:1000500029040008290400082904000829040008CC
:1000600029040008290400082904000829040008BC
:1000700029040008290400082904000829040008AC
:10008000290400082904000829040008290400089C
:10009000290400082904000829040008290400088C
:1000A000290400082904000829040008290400087C
:1000B000290400082904000829040008290400086C
:1000C000290400082904000829040008290400085C
:1000D000290400082904000829040008290400084C
:1000E000290400082904000829040008290400083C
:1000F000290400082904000829040008290400082C
:10010000290400082904000829040008290400081B
:10011000290400082904000829040008290400080B
:1001200029040008290400082904000829040008FB
:1001300029040008290400082904000829040008EB
:1001400029040008290400082904000829040008DB
:1001500029040008290400082904000829040008CB
:1001600029040008290400082904000829040008BB
:1001700029040008290400082904000800000000E0
:10018000290400082904000829040008290400089B
:10019000290400082904000829040008290400088B
:1001A00000000000000000002904000829040008E5
:1001B000290400082904000829040008290400086B
:1001C000290400082904000800B583B000F0B0FF3E
:1001D000384B394A1360394A136039490CE00A68D0
:1001E0004B6801F10C04886803E01168196004335E
:1001F00004329842F9D82146324B9942EFD32E4B24
:100200001A68314B9A4204D12C4B1A682F4B9A42F0
:1002100000D0FEE7274B2E4A13602E4A13602E4B68
:100220000AE0194651F8082B5B6802E000201060D4
:1002300004329A42FAD30B46284A9342F1D3244B14
:100240001B6813B9234B1B6803B1FEE701F0C4F828
:10025000694601A800F0FCFE214C224B1C1BA41097
:10026000002504E01E4B53F8253098470135AC4279
:10027000F8DC1D4C1D4B1C1BA410002504E01A4B80
:1002800053F8253098470135AC42F8DC00990198C5
:1002900001F0E4F80546164C164B1C1BA41004E0B4
:1002A000013C134B53F824309847002CF8DC2846C7
:1002B00000F0A0FEBABADECA0000002074000020E0
:1002C0002C040008440400087856341232547698FE
:1002D00078000020140100204404000854040008A1
:1002E000540400085404000854040008540400088E
:1002F000540400085404000808B5FFF765FF00BF68
:1003000000BEFEE71EF0040F0CBFEFF30880EFF312
:1003100009807146414A10472DE9F04182B00446F8
:100320008846134B5E6B9F6B9D6A1B6B13F0020F2D
:100330000DD00F4BDB6A002B09DA4BF6AB6100F0F6
:100340007BFF20B14FF00042094BDA620CE0094814
:1003500000F090FECDF800803B463246294620460C
:1003600000F0F2FE00BEFEE702B0BDE8F08100BF83
:1003700000ED00E0D41F000800BEFEE71EF0040FF1
:100380000CBFEFF30880EFF309807146244A104751
:100390002DE9F04182B004468846084B5E6B9F6BA6
:1003A0009D6A074800F066FECDF800803B46324665
:1003B0002946204600F0C8FE00BEFEE700ED00E042
:1003C000E41F00081EF0040F0CBFEFF30880EFF3EA
:1003D00009807146134A10472DE9F04182B0044666
:1003E0008846084B5E6B9F6B9D6A074800F042FE93
:1003F000CDF800803B4632462946204600F0A4FE58
:1004000000BEFEE700ED00E0F01F000800BEFEE7C2
:1004100000BEFEE700BEFEE77047000019030008BB
:0C04200091030008D903000800BEFEE7AD
:10042C004820000800000020780000204820000828
:10043C0000000010000000107800002018010020BF
:08044C00000000100000001088
:1004600010B5044600F0ACFD064BA3FB003080093C
:1004700000F080F8002221464FF0FF3000F03AF8FB
:10048000002010BDD34D621008B5074A136843F42D
:1004900000731360032000F00FF80F20FFF7E0FF58
:1004A00000F0DEFF002008BD003C0240014B186850
:1004B000704700BF7C00002010B50446C31E042B0B
:1004C00003D9A421084800F0CBFD084AD36823F4DF
:1004D000E0631B041B0C240204F4E0641C43044B83
:1004E0002343D36010BD00BF981D000800ED00E05D
:1004F0000000FA0570B504460E4615460F2A03D9CA
:10050000BC21184800F0ACFD0F2E03D9BD211548C1
:1005100000F0A6FD144BDA68C2F30222C2F1070113
:10052000042928BF0421131D062B01D9033A00E03A
:100530000022012303FA01F101393140914003FA0D
:1005400002F2013A2A400A43002C06DA04F00F04B2
:100550001201D2B2054B1A5570BD1201D2B2044B32
:100560001A5570BD981D000800ED00E014ED00E084
:1005700000E400E00138B0F1807F0AD2064B5860F9
:10058000F021064A82F823100020986007221A60A2
:1005900070470120704700BF10E000E000ED00E070
:1005A00010B50446042818BF002804D040F2B31147
:1005B000084800F055FD042C05D1074A136843F0A4
:1005C0000403136010BD044A136823F0040313608E
:1005D00010BD00BF981D000810E000E010B582B00B
:1005E000002301931C4B1A6C42F080521A641B6C5E
:1005F00003F080530193019B184A136843F480333E
:100600001360FFF753FF044605E0FFF74FFF001BA1
:10061000B0F57A7F1AD8114B5B6813F4803FF4D0A1
:100620000E4A136843F400331360FFF73FFF04469C
:1006300005E0FFF73BFF001BB0F57A7F08D8074BBA
:100640005B6813F4003FF4D0002002E0032000E0D8
:10065000032002B010BD00BF00380240007000400F
:1006600030B583B0044603680F2B04D94FF4807172
:100670009B4800F0F5FC236813F0010F00F0918017
:100680006368002B18BFB3F5803F07D0B3F5A02FE8
:1006900004D04FF48371924800F0E2FC914B9B68C8
:1006A00003F00C03042B0AD08E4B9B6803F00C0361
:1006B000082B0DD18B4B5B6813F4800F08D0894B4E
:1006C0001B6813F4003F6CD06368002B69D15BE2B8
:1006D000844B1A6822F480321A601A6822F480224D
:1006E0001A601A6822F480321A60FFF7DFFE0546AE
:1006F00006E0FFF7DBFE401BB0F5FA7F00F2468212
:10070000784B1B6813F4003FF3D1764A136823F447
:10071000803313606368B3F5803F09D113461268D4
:1007200022F480221A601A6842F480321A6015E0BE
:10073000B3F5A02F09D16B4B1A6842F480221A60DE
:100740001A6842F480321A6008E0664B1A6822F494
:1007500080221A601A6822F480321A60636883B1BA
:10076000FFF7A4FE054606E0FFF7A0FE401BB0F52C
:10077000FA7F00F20D825B4B1B6813F4003FF3D04D
:100780000FE0FFF793FE054606E0FFF78FFE401BE4
:10079000B0F5FA7F00F2FE81524B1B6813F4003F64
:1007A000F3D1236813F0020F6ED0E368012B04D954
:1007B00040F247114A4800F053FC23691F2B04D92B
:1007C0004FF4A471464800F04BFC464B9B6813F075
:1007D0000C0F0AD0434B9B6803F00C03082B1BD172
:1007E000404B5B6813F4800F16D13E4B1B6813F02F
:1007F000020F03D0E368012B40F0CE813948036833
:1008000023F0F8012369F82292FAA2F2B2FA82F2F6
:1008100093400B43036037E0E3680BB3314A13683E
:1008200043F001031360FFF741FE054605E0FFF7C3
:100830003DFE401B642800F2B1812A4B1B6813F077
:10084000020FF4D02748036823F0F8012369F82247
:1008500092FAA2F2B2FA82F293400B43036013E0E1
:10086000204A136823F001031360FFF71FFE0546BB
:1008700005E0FFF71BFE401B642800F29181194B35
:100880001B6813F0020FF4D1236813F0080F36D061
:100890006369012B04D94FF4C471114800F0E0FBE7
:1008A0006369A3B10F4A536F43F001035367FFF726
:1008B000FDFD054605E0FFF7F9FD401B642800F249
:1008C0007181084B5B6F13F0020FF4D017E0054AFB
:1008D000536F23F001035367FFF7E8FD054609E076
:1008E000DC1D000800380240FFF7E0FD401B6428D3
:1008F00000F25A81B54B5B6F13F0020FF4D12368FD
:1009000013F0040F00F09480A368052B18BF012B8F
:1009100004D94FF4D971AE4800F0A2FB0023019333
:10092000AA4B1A6C42F080521A641B6C03F080537D
:100930000193019BA74A136843F480731360FFF788
:10094000B5FD054605E0FFF7B1FD401B642800F248
:100950002D81A04B1B6813F4807FF4D09B4B1A6F42
:1009600022F001021A671A6F22F004021A671A6F46
:1009700022F001021A67FFF799FD054607E0FFF72D
:1009800095FD401B41F28833984200F211818F4B54
:100990001B6F13F0020FF2D18C4A136F23F0010387
:1009A0001367A368012B09D11346126F22F00402CA
:1009B0001A671A6F42F001021A6714E0052B09D179
:1009C000824B1A6F42F004021A671A6F42F001025A
:1009D0001A6708E07D4B1A6F22F004021A671A6F3B
:1009E00022F001021A67A3688BB1FFF75FFD05468D
:1009F00007E0FFF75BFD401B41F28833984200F2AD
:100A0000D980724B1B6F13F0020FF2D010E0FFF78A
:100A10004DFD054607E0FFF749FD401B41F28833D5
:100A2000984200F2C980694B1B6F13F0020FF2D19C
:100A3000A369022B04D94FF4FB71654800F010FB49
:100A4000A369002B00F0BA80604A926802F00C02A1
:100A5000082A00F0B580022B40F08180E369002B6A
:100A600018BFB3F5800F04D040F2FF11584800F0D2
:100A7000F7FA236A023B3D2B04D94FF40071544826
:100A800000F0EEFA636A323BB3F5BF7F04D940F25F
:100A900001214F4800F0E4FAA36A022B18BF042B8F
:100AA00008D0062B06D0082B04D040F2022148487B
:100AB00000F0D6FAE36A023B0D2B04D940F2032181
:100AC000434800F0CDFA414A136823F08073136065
:100AD000FFF7ECFC054604E0FFF7E8FC401B642848
:100AE00070D83A4B1B6813F0007FF5D1216A636A16
:100AF00047F6C07292FAA2F2B2FA82F29340194318
:100B0000A36A5B085A1E4FF4403393FAA3F3B3FA77
:100B100083F302FA03F30B43E2691343E26A4FF0F3
:100B2000706191FAA1F1B1FA81F18A40134343F067
:100B30000053264A5360136843F080731360FFF735
:100B4000B5FC044604E0FFF7B1FC001B64283BD869
:100B50001E4B1B6813F0007FF5D000203DE01B4AC0
:100B6000136823F080731360FFF7A0FC044604E0D1
:100B7000FFF79CFC001B64282ED8144B1B6813F055
:100B8000007FF5D1002028E0012026E0032024E0AA
:100B9000032022E0032020E001201EE003201CE0CF
:100BA00003201AE0032018E0032016E0032014E0DD
:100BB000032012E0032010E003200EE000200CE0F0
:100BC00001200AE0032008E0032006E0003802408C
:100BD000DC1D000800700040032003B030BD00BFE2
:100BE00070B504460D460368013B0E2B04D940F254
:100BF0006221894800F034FA0F2D04D940F26321B4
:100C0000854800F02DFA854B1B6803F00F039D42C9
:100C100040F28F80814A136823F00F032B43136047
:100C2000136803F00F039D4240F05781236813F0CF
:100C3000020F1ED0A368002B18BF802B12D0902B60
:100C400010D0A02B0ED0B02B0CD0C02B0AD0D02BA4
:100C500008D0E02B06D0F02B04D040F279216E486A
:100C600000F0FEF96E498B6823F0F002A36813438D
:100C70008B60236813F0010F00F0EB806368022B98
:100C800004D94FF42071644800F0EAF96268012A3F
:100C900005D1634B1B6813F4003F0ED11FE1022AFC
:100CA00005D15F4B1B6813F0007F06D119E15C4B47
:100CB0001B6813F0020F00F0168159498B6823F06E
:100CC000030313438B60FFF7F1FB05466368012BB9
:100CD0000FD107E0FFF7EAFB401B41F2883398424F
:100CE00000F203814E4B9B6803F00C03042BF1D1FF
:100CF000AFE0022B17D107E0FFF7D8FB401B41F212
:100D00008833984200F2F380454B9B6803F00C0354
:100D1000082BF1D19DE0FFF7C9FB401B41F288335E
:100D2000984200F2E6803E4B9B6813F00C0FF2D124
:100D30008FE0236813F0020F1ED0A368002B18BFAA
:100D4000802B12D0902B10D0A02B0ED0B02B0CD01B
:100D5000C02B0AD0D02B08D0E02B06D0F02B04D02B
:100D60004FF432712C4800F07BF92D498B6823F049
:100D7000F002A36813438B60236813F0010F5DD06A
:100D80006368022B04D940F2CF21234800F068F9B0
:100D90006268012A05D1224B1B6813F4003F0ED173
:100DA000A9E0022A05D11E4B1B6813F0007F06D173
:100DB000A3E01B4B1B6813F0020F00F0A080184942
:100DC0008B6823F0030313438B60FFF76FFB06462A
:100DD0006368012B0FD107E0FFF768FB801B41F22E
:100DE0008833984200F28D800D4B9B6803F00C0312
:100DF000042BF1D122E0022B1BD106E0FFF756FBBA
:100E0000801B41F2883398427DD8054B9B6803F0E4
:100E10000C03082BF2D111E0DC1D0008003C02405D
:100E200000380240FFF742FB801B41F288339842B2
:100E30006BD8384B9B6813F00C0FF3D1364A13680C
:100E400023F00F032B431360136803F00F039D423D
:100E50005DD1236813F0040F1AD0E368002B18BF8C
:100E6000B3F5805F0DD0B3F5A05F0AD0B3F5C05FD6
:100E700007D0B3F5E05F04D040F21E31274800F000
:100E8000EFF824498B6823F4E052E36813438B6046
:100E9000236813F0080F1BD02369002B18BFB3F58C
:100EA000805F0DD0B3F5A05F0AD0B3F5C05F07D067
:100EB000B3F5E05F04D040F22531184800F0D0F8D7
:100EC000144A936823F46043216943EAC1039360A1
:100ED0000F20FFF7C5FA002070BD012070BD012072
:100EE00070BD012070BD012070BD032070BD0320C6
:100EF00070BD032070BD012070BD012070BD0120B8
:100F000070BD032070BD032070BD032070BD0120A3
:100F100070BD00BF00380240003C0240DC1D0008EC
:100F2000244B9B6803F00C03042B3FD0082B01D00B
:100F30002148704710B41F4B586800F03F005B68B1
:100F400013F4800F10D01D4BB3FBF0F0194B5A680F
:100F500047F6C0710A4091FAA1F3B3FA83F322FA7B
:100F600003F303FB00F310E0134BB3FBF0F0114B62
:100F70005A6847F6C07402EA040194FAA4F2B2FA7D
:100F800082F221FA02F202FB00F30A4A506800F4EE
:100F900040324FF4403090FAA0F0B0FA80F022FADC
:100FA00000F001304000B3FBF0F001E0034870476F
:100FB00010BC7047003802400024F40000127A0090
:100FC00008B5FFF7ADFF084B9B6803F0F002F02374
:100FD00093FAA3F3B3FA83F322FA03F3034AD35C3D
:100FE000D840034B186008BD00380240CC1D0008F3
:100FF0000C000020FEE700BF08B5034800F052F8DF
:101000000120FFF7F7FF00BF0C1E000808B50D4BCD
:101010001B6813B90C4A0B4B1A600A4B1A68C31CA5
:1010200023F00303134409498B4206D900F01AFA4E
:101030000C2303604FF0FF3008BD02490B601046DF
:1010400008BD00BF800000201801002000FC042023
:1010500001230360014B0B60704700BF04000020B8
:1010600008B50A460146024800F004F8FFF7C4FF3D
:10107000601E00080FB400B583B004AB53F8042B16
:1010800001938021064800F027FA002803DD01467D
:10109000034800F049F803B05DF804EB04B0704772
:1010A0008800002010B5044600F0E2F90146204611
:1010B00000F03AF80121024800F036F810BD00BFF8
:1010C000501F00082DE9F04385B004460F464356F3
:1010D00013BB042528462146ABBE04461FE0354617
:1010E000102E28BF1025002306E014F9011B04AAC6
:1010F0001A4402F8101C0133AB42F6D304AA13447D
:10110000002203F8102CE9464FF0040840464946F7
:10111000ABBE8046761B00E00E46002EDFD138467F
:1011200005B0BDE8F08300BF08B5FFF7CBFF08BDF1
:1011300008B500F091F8024B024A9A6008BD00BF62
:1011400000ED00E000000008F8B504460D46174623
:101150001E462648FFF78EFF21682548FFF78AFFC5
:1011600061682448FFF786FFA1682348FFF782FFE4
:10117000E1682248FFF77EFF21692148FFF77AFFE7
:1011800061692048FFF776FFA1691F48FFF772FFEA
:10119000E1691E48FFF76EFF1D48FFF76BFF294608
:1011A0001C48FFF767FF1C4CE16A1C48FFF762FF11
:1011B000216B1B48FFF75EFFE16B1A48FFF75AFFF0
:1011C00015F0800F03D039461748FFF753FF15F489
:1011D000004F03D031461548FFF74CFF1448FFF786
:1011E00049FF06991348FFF745FFF8BDB81E0008F0
:1011F000C81E0008D81E0008E81E0008F81E0008D7
:10120000081F0008181F0008281F0008381F0008C2
:10121000481F0008541F000800ED00E0641F00088C
:10122000741F0008841F0008941F0008A41F0008F2
:10123000B41F0008BC1F000883691A888A4207D1BE
:101240000268033A012A05D80233836101207047FE
:1012500000207047002070470B4B1A6842F00102D3
:101260001A60002199601868084A02401A60084A0A
:101270005A601A6822F480221A60D9604FF0006226
:10128000044B9A60704700BF00380240FFFFF6FE33
:101290001030002400ED00E0224B9B6803F00C03AB
:1012A000042B07D0082B09D0002B2DD11E4A1F4B31
:1012B0001A602CE01E4A1D4B1A6028E0194B5A6830
:1012C0005B6803F03F0312F4800F09D0184AB2FBA9
:1012D000F3F2144B5B68C3F3881303FB02F208E0DC
:1012E000114AB2FBF3F30F4A5168C1F3881101FBB5
:1012F00003F20C4B5B68C3F3014301335B00B2FBA9
:10130000F3F30A4A136002E0074A084B1A60054BE0
:101310009B68C3F30313074AD15C044A1368CB40AC
:1013200013607047003802400024F4000C000020D5
:1013300000127A000020000830B595B00024019416
:10134000224B1A6C42F080521A641B6C03F08053DB
:101350000193019B02941E4B1A6842F440421A60AA
:101360001B6803F440430293029B012308934FF44C
:10137000803309934FF480030F93082310934FF4A5
:10138000C07211920225129513930E9508A8FFF7CB
:1013900067F9FFF723F90F230393049505944FF49E
:1013A000A05306934FF480530793062103A8FFF739
:1013B00017FCFFF705FE074BA3FB00308009FFF782
:1013C000D9F80420FFF7ECF815B030BD0038024022
:1013D00000700040D34D621010B5BFF34F8FBFF3C4
:1013E0006F8F1D4B0021C3F850125A6942F400322E
:1013F0005A61BFF34F8FBFF36F8FC3F88410BFF3F1
:101400004F8FD3F88040C4F34E3000E01846C4F349
:10141000C90200E01A4643F6E07303EA401343EAC8
:1014200082730D49C1F86032531E002AF2D1431E67
:101430000028EBD1BFF34F8F4B6943F480334B61EE
:10144000BFF34F8FBFF36F8FFFF71EF8FFF774FFE7
:10145000FFF722FF10BD00BF00ED00E0FEE700BF78
:10146000704700BF014B1868704700BF7000002034
:10147000034613F8012B002AFBD1181A01387047D4
:1014800030B5141E05469BB0184604DA8B232B603A
:101490004FF0FF301DE04FF40273ADF80C3014BF75
:1014A00004F1FF332346029305934FF6FF73009137
:1014B0000491ADF80E3002461E9B6946284600F0A6
:1014C00073F8431CBCBF8B232B6014B1009B00221C
:1014D0001A701BB030BD000007B5009313460A46D2
:1014E000014603480068FFF7CBFF03B05DF804FB3B
:1014F000700000202DE9F0478E689E4282460C461F
:10150000914698463ED88A8912F4906F3AD0256861
:1015100009696F1A6569022305EB450595FBF3F52B
:101520007B1C43449D4238BF1D4653050FD52946B9
:1015300000F092FB064698B13A46216900F018FB8C
:10154000A38923F4906343F08003A38113E02A4628
:1015500000F0E0FB064670B92169504600F02EFB12
:101560000C23CAF80030A38943F04003A3814FF055
:10157000FF30BDE8F087266165613E44ED1B2660C3
:10158000A5604646464528BF46463246494620683D
:1015900000F0F9FAA3689B1BA36023681E44266031
:1015A0000020BDE8F08700002DE9F04F9DB0804697
:1015B00003938B891C060D4616460DD50B695BB946
:1015C000402100F049FB2860286118B90C23C8F8B5
:1015D0000030CDE040236B610023099320238DF878
:1015E0002930DFF89CB130238DF82A3037463C464D
:1015F00014F8013B1BB9B7EB060910D003E0252B0B
:10160000F9D02746F3E74B46324629464046FFF7D6
:1016100071FF013000F0A780099B4B4409933B7890
:10162000002B00F0A08000234FF0FF3204930793BB
:10163000059206938DF853301A93012605222178DE
:101640004E4800F045FA671C049B38B14B4A801A9B
:1016500006FA00F0184304903C46EFE7D90644BF71
:1016600020228DF853201A0744BF2B228DF85320D7
:1016700022782A2A03D0079A00210A200BE0039A35
:10168000111D12680391002A10DA524243F0020041
:10169000079204900BE0274601343B78303B092B3E
:1016A00003D800FB02320121F5E701B107923B7834
:1016B0002E2B1ED17B782A2B0AD1039B1A1D1B6867
:1016C0000392002BB8BF4FF0FF330237059310E0B1
:1016D00000230593781C19460A24074601303A78FE
:1016E000303A092A03D804FB01210123F5E703B1AD
:1016F000059103223978224800F0EAF940B14023ED
:10170000CBEB000003FA00F0049B18430490013770
:1017100039781C488DF8281006227E1C00F0D8F974
:1017200088B1194B33B9039B073323F00703083300
:10173000039314E003AB00932A46144B04A94046DC
:10174000AFF3008007E003AB00932A460F4B04A9D8
:10175000404600F093F8B0F1FF3F824603D0099B6A
:101760005344099342E7AB895B0601D4099801E031
:101770004FF0FF301DB0BDE8F08F00BF1220000811
:10178000182000081C20000800000000F5140008C4
:101790002DE9F04791461F460A698B68DDF82080E5
:1017A0009342B8BF1346C9F8003091F8432006466B
:1017B0000C4612B10133C9F800302368990642BFC4
:1017C000D9F800300233C9F80030256815F0060555
:1017D00010D104F1190A07E0012352463946304678
:1017E000C04701301AD00135E368D9F800209B1AB0
:1017F0009D42F1DB94F843302268003318BF012387
:1018000092060FD5E1185A1C302081F8430022447B
:1018100094F8451082F84310023303E04FF0FF3094
:10182000BDE8F08704F1430239463046C047013035
:10183000F4D02268D9F80050E36802F00602042AC6
:1018400008BF5D1B2269A3680CBF25EAE57500256A
:101850009342C4BF9B1AED184FF000091A344D454E
:1018600009D00123224639463046C0470130D5D041
:1018700009F10109F3E70020BDE8F0872DE9F04305
:1018800017460A7E85B06E2A984606460C460C9B83
:1018900001F1430E00F0AE8011D8632A22D009D89E
:1018A000002A00F0BB80582A40F0CA8081F8452009
:1018B000834955E0642A1ED0692A1CD0C0E0732AEF
:1018C00000F0B08009D86F2A2ED0702A40F0B8807E
:1018D0000A6842F020020A603EE0752A24D0782A85
:1018E0003AD0ADE01A6801F14205111D1960136884
:1018F00084F84230A8E021681A6811F0800F02D005
:10190000111D196008E011F0400F02F10401196087
:1019100002D0B2F9003000E01368002B3CDA2D222F
:101920005B4284F8432037E021681A6811F0800F89
:1019300002D0111D196007E011F0400F02F10401FF
:10194000196001D0138800E01368227E5C496F2A79
:1019500014BF0A2208221BE078225A4984F8452045
:101960002268186812F0800F00F104051D6003D191
:10197000550601D5038800E00368D00744BF42F054
:10198000200222601BB9226822F02002226010226D
:10199000002084F8430001E049490A226568A560F7
:1019A000002D08DB206820F0040020602BB9002DFA
:1019B0007DD175460CE0002B79D07546B3FBF2F073
:1019C00002FB1033CB5C05F8013D03460028F5D13E
:1019D000082A0BD12368DA0708D5236962689A427E
:1019E000DEBF302305F8013C05F1FF35C5EB0E03E2
:1019F00023612EE008681A68496910F0800F03D04F
:101A0000101D1860136808E010F0400F02F1040088
:101A10001860136801D0198000E019600023236169
:101A2000754616E01A68111D196015686268002174
:101A3000284600F04DF808B1401B6060636804E080
:101A400004F1420584F8422001232361002384F835
:101A50004330CDF800803B4603AA21463046FFF7CD
:101A600097FE013002D14FF0FF3026E023692A466D
:101A700039463046C0470130F5D023689B0710D562
:101A8000002504F1190907E001234A46394630468A
:101A9000C0470130E7D00135E368039A9B1A9D42A5
:101AA000F2DBE068039B9842B8BF184605E00B786C
:101AB00084F8423004F142058AE705B0BDE8F083BE
:101AC000232000083420000800000000000000006F
:101AD00001F0FF01102A2BDB10F0070F08D010F8DF
:101AE000013B013A8B422DD010F0070F42B3F6D1E3
:101AF000F0B441EA012141EA014122F007047FF0FC
:101B000000070023F0E80256083C85EA010586EA52
:101B1000010685FA47F5A3FA87F586FA47F6A5FA8E
:101B200087F68EB9EED1F0BC01F0FF0102F007029A
:101B300032B110F8013B013A83EA010313B1F8D145
:101B40000020704701387047002D06BF3546033826
:101B5000073815F0010F07D1013015F4807F02BF5F
:101B6000013015F4C03F0130F0BC0138704700BFB0
:101B700010B5431E0A44914204D011F8014B03F8FA
:101B8000014FF8E710BD884210B501EB020301D800
:101B9000421E0BE09842FBD28118D21AD34204D0E5
:101BA00013F8014D01F8014DF8E710BD994204D03A
:101BB00011F8014B02F8014FF8E710BD38B50546A2
:101BC000002946D051F8043C0C1F002BB8BFE41884
:101BD00000F0D6F81F4A1368114613B96360146009
:101BE00032E0A3420ED92268A018834204BF1868CD
:101BF0005B68636004BF121822600C6024E0A2429C
:101C000003D813465A68002AF9D118681918A14256
:101C10000BD12168014458188242196014D1106810
:101C200052685A60014419600EE002D90C232B60FF
:101C30000AE021686018824204BF1068526862603E
:101C400004BF091821605C602846BDE8384000F0F8
:101C500098B838BD0C01002070B5CD1C25F00305E7
:101C600008350C2D38BF0C25002D064601DBA94296
:101C700002D90C23336046E000F082F8234B1C6845
:101C80001A462146A1B10B685B1B0ED40B2B03D95E
:101C90000B60CC18CD501EE08C420DBF63684B68C2
:101CA0006360136018BF0C4615E00C464968E9E70D
:101CB000174C23681BB9304600F052F820602946C3
:101CC000304600F04DF8431C18D0C41C24F0030427
:101CD000A0420DD12560304600F053F804F10B000E
:101CE000231D20F00700C31A0ED05A42E25070BDE7
:101CF000211A304600F034F80130EBD10C23336068
:101D0000304600F03EF8002070BD00BF0C010020FE
:101D100008010020F8B5074615460E4621B91146C0
:101D2000BDE8F840FFF798BF1AB9FFF747FF28460C
:101D3000F8BD00F027F885420ED929463846FFF74E
:101D40008BFF044650B131462A46FFF711FF31465A
:101D50003846FFF733FF01E03046F8BD2046F8BDB6
:101D600038B5064C0023054608462360FFF74EF9B8
:101D7000431C02D1236803B12B6038BD1001002041
:101D80007047704751F8040C0028BEBF091851F87D
:101D9000043CC018043870472E2E2F737973746575
:101DA0006D2F7372632F73746D333266372D6861D4
:101DB0006C2F73746D3332663778785F68616C5F4F
:101DC000636F727465782E630000000000000000ED
:101DD0000102030401020304060708092E2E2F73D3
:101DE000797374656D2F7372632F73746D333266FC
:101DF000372D68616C2F73746D3332663778785F76
:101E000068616C5F7263632E6300000061626F72D1
:101E10007428292C2065786974696E672E2E2E002F
:101E20002C2066756E6374696F6E3A2000000000A6
:101E3000617373657274696F6E2022257322206648
:101E400061696C65643A2066696C6520222573229D
:101E50002C206C696E65202564257325730A0000AB
:101E60006173736572745F706172616D2829206699
:101E700061696C65643A2066696C6520222573226D
:101E80002C206C696E652025640A00006D61696E06
:101E900028617267633D25642C20617267763D5B23
:101EA000000000002C20000022257322000000000A
:101EB0005D293B0A00000000537461636B20667269
:101EC000616D653A0A000000205230203D20202537
:101ED0003038580A00000000205231203D202025D3
:101EE0003038580A00000000205232203D202025C2
:101EF0003038580A00000000205233203D202025B1
:101F00003038580A0000000020523132203D202590
:101F10003038580A00000000204C52203D20202577
:101F20003038580A00000000205043203D20202572
:101F30003038580A0000000020505352203D202520
:101F40003038580A000000004653522F4641523A9A
:101F50000A0000002043465352203D2020253038FF
:101F6000580A00002048465352203D202025303892
:101F7000580A00002044465352203D202025303886
:101F8000580A00002041465352203D202025303879
:101F9000580A0000204D4D464152203D2025303842
:101FA000580A00002042464152203D20202530386A
:101FB000580A00004D6973630A000000204C522F3C
:101FC0004558435F52455455524E3D2025303858B0
:101FD0000A0000005B486172644661756C745D0ABA
:101FE000000000005B4275734661756C745D0A0009
:101FF0005B55736167654661756C745D0A0000002E
:1020000000000000000000000102030406070809A8
:102010004300232D302B2000686C4C00656667451B
:102020004647003031323334353637383941424350
:102030004445460030313233343536373839616201
:05204000636465660009
:102048007856341284000020000000000024F400B8
:102058000000000000000000000000000000000078
:102068000000000000000000000000000000000068
:102078001020000800000000000000000000000020
:102088000000000000000000000000000000000048
:102098000000000000000000000000000000000038
:1020A8000000000000000000000000000000000028
:0820B80010000020325476985C
:04000005080001C925
:00000001FF
